:020000040800F2
:1000000000500020E1090008DD090008DD090008B2
:10001000DD090008DD090008DD0900080000000016
:10002000000000000000000000000000DD090008E2
:10003000DD09000800000000DD090008410A000891
:1000400010B514464FF6FF7392B2024800F0AEFCB2
:10005000204610BDE800002000230121102200B539
:100060008BB001A8CDE90633CDE90833CDE9021202
:1000700005930193049300F009FC08B172B6FEE702
:1000800001460F2305A8CDE90611CDE90811059316
:1000900000F0FEFB08B172B6FEE70BB05DF804FBA2
:1000A00070B5002401257F2684B000F0CFFBFFF758
:1000B000D3FF4F4B03949A69694642F004029A6158
:1000C0009A694C4842F008029A61CDE900640295B1
:1000D00000F0E0FB224640F20331474800F032FCDA
:1000E00040F2033202234448694600920393CDE96B
:1000F000015400F0CFFB4FF416534048404AC0E98A
:100100000244C0E90444C0E90644C0E9002300F009
:100110001FFC08B172B6FEE700F0BCFA00F06CFA02
:1001200000F0E4F9374800F01BFD374800F018FDF7
:10013000364800F015FD364800F012FD354800F055
:100140000FFD354800F00CFD344800F009FD34483F
:1001500000F006FD334800F003FD334800F000FDD9
:1001600000F086FB064600F083FB851B092D044644
:10017000F9D9284600F04EFA032000F079FA98BB2E
:10018000042000F075FA58BB052000F071FA18BB86
:10019000012000F06DFAD8B9022000F069FA98B990
:1001A000002000F065FA58B9062000F061FA10B19D
:1001B000082000F0C7F9284600F0E2F92646D2E709
:1001C000062000F0BFF9EFE7052000F0BBF9E7E7F4
:1001D000042000F0B7F9DFE7032000F0B3F9D7E718
:1001E000022000F0AFF9CFE7012000F0ABF9C7E73C
:1001F0000010024000080140000C0140E80000200F
:1002000000380140841A0008BC1A0008F41A0008DB
:100210002C1B0008641B0008741B0008B01B00089E
:10022000EC1B0008281C0008641C000838B5214D90
:100230002B78834222D00446052B96BF1E4A1F49C5
:1002400052F82310052896BF1B4B1C4A53F8202058
:100250001B4800F0FFFB2C70052C0FD8DFE804F0E2
:1002600011131E03090F002000F04EFA002000F0C9
:1002700067FABDE83840002000F07EBA38BD0220A1
:10028000F2E70120F0E7002000F03EFA012000F044
:1002900057FABDE83840002000F06EBA002000F0A8
:1002A00033FA022000F04CFABDE83840012000F09B
:1002B00063BA00BFB8000020F42100089C1C0008AD
:1002C000A41C000838B5784C2378052B0DD8DFE83E
:1002D00003F01B374A68030D062800F09D800728AD
:1002E00003D1A3880BB1013BA38038BD082801D0FE
:1002F0000628FAD16D4800F033FC00202072A0805F
:10030000BDE83840FFF792BF431E022BEDD801280D
:100310007FD0022800F0B78032210A466388644803
:100320001A4492B2628000F095FB6388312BDCD9CD
:10033000604800F015FCBDE838400120FFF776BFAB
:10034000431E022B54D8012860D0022800F0988068
:1003500032210A46638858481A4492B26280BDE846
:10036000384000F077BB052864D0062800F0818073
:100370000728BAD1A388002BB7D05049013B9BB2C4
:10038000A1FB03214909C1EB0112A3EB82024C48F6
:1003900092B2A38000F05EFBA488002CA5D149484E
:1003A0001BE004284ED0062854D007289DD1A388EE
:1003B000002B9AD04149013B9BB2A1FB0321490983
:1003C000C1EB0112A3EB82023F4892B2A38000F07E
:1003D00041FBA488002C88D13C4800F0C1FB4FF4BD
:1003E0007A7000F0D1F92046BDE83840FFF71EBF13
:1003F00004284BD006287FF478AF354800F0B0FBD6
:1004000000206080BDE83840FFF710BF0A210A468F
:10041000A0E70A210A4681E700252E4800F0A0FB4C
:100420004FF4FA70656000F0AFF92846BDE8384037
:10043000FFF7FCBE284800F093FBBDE838400320DE
:10044000FFF7F4BE254800F08BFBBDE838400220E2
:10045000FFF7ECBE4FF4FA61214800F0FBFA0322EB
:100460004FF4FA636270E3800420BDE83840FFF780
:10047000DDBE4FF4FA611B4800F0ECFA0222EFE710
:1004800014210A4666E714210A4647E762881E21BE
:10049000154800F0DFFA1E230022A38062800220AC
:1004A000BDE83840FFF7C2BEB80000204420000875
:1004B000C41C0008F41C0008301D000889888888C6
:1004C000901E0008B81E0008841F0008C01F000806
:1004D000C01D0008FC1F0008F81D0008F81E0008D9
:1004E000281F0008401E00086C1D000810B50024DD
:1004F0000E4B0F4AC3E90044012014601C7200F047
:1005000003F9204600F01CF9204600F035F90948AF
:1005100000F026FB084800F023FB084800F020FB11
:10052000BDE81040064800F01BBB00BFB80000202B
:10053000C400002084200008B4200008E420000843
:100540001821000860B1082801D0FFF7BBBE08B52C
:10055000094B1A78052A04D1BDE80840FFF7B2BE5E
:100560007047012205481A7200F0FAFABDE8084007
:100570000520FFF75BBE00BFB80000204421000843
:1005800038B5184D044600F00FF92B78042B07D02E
:10059000154B18682044B0F57A7F19D2186038BD21
:1005A000EB88A3421BD800226B78EA80052B96BF0C
:1005B0000E4A0F4952F823100E4800F04BFA6878A3
:1005C000FFF734FE084B18682044B0F57A7FE5D376
:1005D000002207201A60BDE83840FFF773BE1B1BDE
:1005E000EB80D5E7B8000020C4000020F42100080B
:1005F0009C1C00087C2100080022054B03F15401DB
:100600009A71DA711A819A720C338B42F8D1704761
:10061000000000202DE9F041144C4FF0010807467E
:10062000002604F1540504E0E37126810C34AC4249
:100630001AD0A188206800F07FF9B0FA80F3E2793F
:100640005B099A42F0D12189CA19132992B2EDD8D7
:10065000132A2281EAD918B9A2790AB984F80A8042
:10066000A3710C34AC42E4D1BDE8F081000000205D
:1006700006280AD8064B00EB400003EB8003987A6B
:1006800000B9704700229A7270470020704700BF7F
:100690000000002038B5002413481449144B154DB0
:1006A00004700C70144A154815491C60154B1460F1
:1006B0000470224628460C7001211C8000F042F98B
:1006C00022462846022100F03DF9224628464FF4F2
:1006D000807100F037F922462846BDE838404FF4D3
:1006E000007100F02FB900BFD2000020C800002028
:1006F000D4000020000C0140CC000020D3000020DA
:10070000C9000020D0000020094B02461978814220
:100710000CD0002007491A7008602AB9064B012145
:1007200006481A7000F00EB90122F7E7704700BFC3
:10073000D2000020D4000020D3000020000C014093
:10074000094B0246197881420CD0002007491A70E3
:1007500008602AB9064B022106481A7000F0F2B868
:100760000122F7E7704700BFC8000020CC0000203E
:10077000C9000020000C014002464FF4807101487E
:1007800000F0E0B8000C014010B40446044B012214
:100790001C804FF40071034810BC00F0D3B800BFB8
:1007A000D0000020000C014038B5204B04461B78D7
:1007B000022B13D01E4B1978022907D01D4B188825
:1007C00018B1A04212D9001B188038BD1A4803681E
:1007D0002344B3F5FA7F1DD20360EFE7174A13688D
:1007E0000344B3F5FA7F0AD21360E3E700224FF423
:1007F00000711A801248BDE8384000F0A3B800210B
:10080000116001210F4B0E481A784A401A7000F00F
:1008100099F8CFE700250C4B05601A78084882F05C
:1008200001021A7000F08EF8C8E700BFD200002065
:10083000C8000020D0000020CC000020D400002000
:10084000000C0140D3000020C900002010B400209B
:1008500041F63F740721044B044A5C6098601960BC
:10086000106062B610BC704710E000E0D8000020B5
:10087000014B1868704700BFD8000020024A136877
:1008800001331360704700BFD8000020002070477C
:10089000002070474FF0040C2DE9F04700230F268D
:1008A0004FF002084FF0080E0D6800EB0C070DE04A
:1008B000D1F808900CFA02FAB9F1010F2ED0226893
:1008C0004AEA020222600133102B25D003F007020E
:1008D00025FA03F4920014F0010F06FA02FAF2D09E
:1008E000072B8CBF3C460446D4F8009029EA0A093D
:1008F000C4F80090D1F80490B9F1000FD8D0B9F144
:10090000010FE0D1D4F8009008FA02F2013342EA74
:100910000902102B2260D9D1BDE8F087D4F800A0DD
:100920000EFA02F242EA0A022260C26809FA03F9E8
:1009300049EA0202C260C6E78368194214BF012077
:1009400000207047012A0CBF01614161704700BF60
:10095000144B02689A4201D00020704730B442F232
:100960000C0040F24134104DA3F54053A96941F405
:10097000804141F00401A961596821F0F0015960FA
:10098000596841F0B0015960596821F470615960AB
:10099000596841F4806159609460D06030BC002097
:1009A000704700BF00380140001002408AB1531E5A
:1009B0009BB20268C818013913681B06FCD511F8F0
:1009C000013F88425360F7D113685B06FCD50020D5
:1009D0007047026813685B06F6D5F8E7FEE700BFCC
:1009E00008B5124A124B9A420DD21248013B0146F9
:1009F0009B1A23F003030433034451F8040B994278
:100A000042F8040BF9D10C4A0C4B9A420BD2114616
:100A10000020013B9B1A23F003030433134441F8E5
:100A2000040B9942FBD1FFF73BFBFEE700000020DF
:100A3000B8000020A4220008B800002018010020FF
:100A4000FFF71CBF03460244934200D1704703F8EE
:100A5000011BF9E70FB40A4B13B51C6824B1A36955
:100A600013B9204600F05EFA05AB2046049AA1684F
:100A7000019300F029FC02B0BDE8104004B07047BB
:100A80005400002070B50E46054618B183690BB9B5
:100A900000F048FAAB69AC6813B9284600F042FA96
:100AA0002C4B9C4220D16C68636EDB0705D4A38974
:100AB000980502D4A06D00F0D3FAA38919071DD5BB
:100AC0002369DBB1013EA36816F8011F013BA36057
:100AD00039BB002B38DA22460A21284600F048F8B4
:100AE000013011D00A2511E01B4B9C4201D1AC68AA
:100AF000DAE71A4B9C4208BFEC68D5E72146284646
:100B000000F088F80028DDD04FF0FF35636EDA077B
:100B100005D4A3899B0502D4A06D00F0A2FA284653
:100B200070BD002B04DAA2699A4206DC0A2904D0BF
:100B300023685A1C22601970C5E72246284600F037
:100B400017F80130BFD1DFE70A2523685A1C22605D
:100B50001D70DBE730220008502200081022000838
:100B6000024B01461868FFF78DBF00BF54000020FC
:100B7000F8B50E461446054618B183690BB900F066
:100B8000D1F9214B9C422BD16C68A369A360A38946
:100B90001A072FD523696BB323692068F6B2C01AF0
:100BA00063693746834204DC2146284600F026F973
:100BB00030BBA3680130013BA36023685A1C22604C
:100BC0001E706369834204D0A389DB0706D50A2E11
:100BD00004D12146284600F011F988B93846F8BDFD
:100BE0000A4B9C4201D1AC68CFE7094B9C4208BF3D
:100BF000EC68CAE72146284600F00CF80028CBD064
:100C00004FF0FF37EAE700BF30220008502200080B
:100C100010220008324B70B51D6806460C4625B1FF
:100C2000AB6913B9284600F07DF92E4B9C420FD1D9
:100C30006C68A389B4F90C2019072CD4DD0611D4F3
:100C40000923336042F040034FF0FF30A3813EE0C0
:100C5000254B9C4201D1AC68EBE7244B9C4208BF7A
:100C6000EC68E6E7580712D5616B41B104F1440323
:100C7000994202D0304600F059FA00236363A389F9
:100C800023F02403A3810023636023692360A389E5
:100C900043F00803A38123694BB9A38903F42073AC
:100CA000B3F5007F03D02146304600F0FFF9A0895C
:100CB000B4F90C2010F001030AD00023A36063698B
:100CC0005B42A361236943B910F08000BAD170BDC3
:100CD000810758BF6369A360F4E70020F7E700BF0E
:100CE0005400002030220008502200081022000882
:100CF0008A892DE9F041054610070C4658D44B6807
:100D0000002B05DC0B6C002B02DC0020BDE8F08121
:100D1000E66A002EF9D0002312F480522F682B606F
:100D200032D0606DA3895A0705D56368C01A636B1A
:100D30000BB1236CC01A00230246E66A2846216ADA
:100D4000B047431CA38906D129681D292CD82A4AFB
:100D5000CA40D60728D5002262602269D9042260E1
:100D600004D5421C01D12B6803B96065616B2F600B
:100D70000029CAD004F14403994202D0284600F069
:100D8000D5F900206063C1E7216A01232846B047F6
:100D9000411CC7D12B68002BC4D01D2B01D0162BB2
:100DA00001D12F60B1E7A38943F04003A381ADE7F0
:100DB0000F69002FA9D0930718BF00230E6808BF42
:100DC0004B69A6EB07080F608B60B8F1000F9CDD44
:100DD00043463A462846216AA66AB047002806DC00
:100DE000A3894FF0FF3043F04003A3818EE707440F
:100DF000A8EB0008E9E700BF0100402038B50B6907
:100E000005460C4613B90025284638BD18B183693C
:100E10000BB900F087F8144B9C421BD16C68B4F9F5
:100E20000C30002BEFD0626ED00704D4990502D4A9
:100E3000A06D00F015F928462146FFF759FF636EB3
:100E40000546DA07E0D4A3899B05DDD4A06D00F048
:100E500008F9D9E7054B9C4201D1AC68DFE7044BA8
:100E60009C4208BFEC68DAE73022000850220008F4
:100E700010220008002310B50446C0E90033C0E981
:100E80000433836081814366C281836119460822ED
:100E90005C30FFF7D7FD054B24626362044BA3620D
:100EA000044BE362044B236310BD00BF75180008B8
:100EB00097180008CF180008F3180008014900F03F
:100EC000AFB800BFFD0D000870B568254A1E554338
:100ED0000E4605F1740100F075F9044640B1002199
:100EE000C0E900160C30A06005F16802FFF7AAFD0A
:100EF000204670BD014800F0B3B800BF10010020CB
:100F0000014800F0AEB800BF10010020014800F019
:100F1000A7B800BF0B010020014800F0A2B800BF35
:100F20000B01002010B50446FFF7F0FFA3691BB1C9
:100F3000BDE81040FFF7F0BFC4E912332365134B3F
:100F4000134A1B68A262A34208BF0123204608BFC0
:100F5000A36100F01FF86060204600F01BF8A0605D
:100F6000204600F017F800220421E0606068FFF7D7
:100F700081FF01220921A068FFF77CFF02221221D4
:100F8000E068FFF777FF0123A361D1E70C22000897
:100F9000BD0E0008F8B50746FFF7ACFF1E4B1E68F4
:100FA000B36913B93046FFF7BDFF4836D6E90134BF
:100FB000013B03D533680BB33668F7E7B4F90C503F
:100FC000D5B9164B04F15800E360656600F047F8A8
:100FD000FFF796FF08222946C4E90155C4E90455E4
:100FE0002560A56104F15C00FFF72CFDC4E90D55F7
:100FF000C4E912552046F8BD6834D9E704213846C3
:10100000FFF762FF044630600028D5D1FFF778FF74
:101010000C233B60EEE700BF0C2200080100FFFF3D
:101020002DE9F84306468846002700F14804D4E934
:101030000195B9F1010905D52468002CF7D138468E
:10104000BDE8F883AB89012B07D9B5F90E30013320
:1010500003D029463046C04707436835E9E7704763
:101060007047704770B50E46B1F90E10144600294E
:101070001D4696B007DA00232B60B3891A0610D4F8
:101080004FF480630EE06A4600F05AFC0028F2DB61
:10109000019A02F47042A2F500535A425A412A6062
:1010A000EEE740230020236016B070BD8B8973B536
:1010B0009D0706460C4607D504F1470323602361CC
:1010C0000123636102B070BD6A4601ABFFF7CAFF3E
:1010D00000990546304600F075F848B9B4F90C306F
:1010E0009A05EFD423F0030343F00203A381E3E75F
:1010F0000D4BB362A389206043F08003A381009B62
:1011000020616361019B5BB13046B4F90E1000F0C1
:1011100029FC28B1A38923F0030343F00103A38131
:10112000A0890543A581CDE7BD0E000838B5054669
:10113000002943D051F8043C0C1F002BB8BFE41821
:1011400000F040FC1E4A1368104633B96360146017
:101150002846BDE8384000F03BBCA3420AD92168CC
:101160006218934201BF1A685B685218226063607C
:101170000460EDE71A465B680BB1A342FAD9116827
:101180005018A0420BD120680144501883421160CE
:10119000DED118685B68014411605360D8E702D95A
:1011A0000C232B60D4E7206821188B4201BF1968FB
:1011B0005B680918216063605460C9E738BD00BFEF
:1011C000DC000020F8B5CD1C25F0030508350C2DFA
:1011D00038BF0C25002D064601DBA94203D90C239C
:1011E00033600020F8BD00F0EDFB21490A68144689
:1011F0009CB9204F3B6823B92146304600F02AFBBA
:1012000038602946304600F025FB431C23D10C23CF
:101210003046336000F0DCFBE3E723685B1B17D448
:101220000B2B03D923601C44256004E06368A242B1
:101230000CBF0B605360304600F0CAFB04F10B009A
:10124000231D20F00700C21ACCD01B1AA350C9E7F7
:1012500022466468CCE7C41C24F00304A042E3D017
:10126000211A304600F0F6FA0130DDD1CFE700BF99
:10127000DC000020E0000020936810B4013B002B4C
:10128000936007DA9469A34201DB0A2902D110BCFA
:10129000FFF76EBC1368581C10601970084610BC2C
:1012A0007047F8B506460F461446D518AC4201D132
:1012B000002007E03A46304614F8011BFFF7DCFF38
:1012C000431CF3D1F8BD00002DE9F04F0D46144644
:1012D000984606469DB018B183690BB9FFF722FE08
:1012E000894B9D421BD175686B6ED90705D4AB89BC
:1012F0009A0502D4A86DFFF7B3FEAB891B0701D591
:101300002B69EBB929463046FFF784FCC0B16B6E00
:10131000DC070ED54FF0FF301DB0BDE8F08F7B4BE2
:101320009D4201D1B568DFE7794B9D4208BFF56862
:10133000DAE7AB899805EDD4A86DFFF792FEE9E7EF
:101340000023099320238DF8293030234FF0010921
:10135000CDF80C80DFF8BC818DF82A3023469A4600
:1013600013F8012B0AB1252AF9D1BAEB040B0BD0E3
:101370005B46224629463046FFF793FF013000F0D6
:10138000AA80099A5A4409929AF80030002B00F07A
:10139000A28000234FF0FF32CDE905230AF1010AB4
:1013A000049307938DF853301A935446052214F88A
:1013B000011B584800F0F8FA049AD8B9D10644BF86
:1013C00020238DF85330130744BF2B238DF853305F
:1013D0009AF800302A2B15D0544600204FF00A0C02
:1013E000079A214611F8013B303B092B4ED9B0B189
:1013F000079214E0A0EB080309FA03F31343A24693
:101400000493D2E7039B191D1B680391002BBBBFFC
:101410005B4242F0020207930793B8BF049223781D
:101420002E2B0CD163782A2B35D1039B02341A1D45
:101430001B680392002BB8BF4FF0FF330593DFF812
:10144000E4A003225046217800F0AEFA40B14023D8
:10145000A0EB0A0003FA00F0049B01340343049359
:1014600014F8011B06222C488DF8281000F09CFA75
:1014700000283FD0294B1BBB039B073323F00703F6
:1014800008330393099B3B44099367E70C4601200B
:101490000CFB0232A5E700234FF00A0C1946013479
:1014A0000593204610F8012B303A092A03D9002B66
:1014B000C5D00591C3E7044601230CFB0121F0E7E9
:1014C00003AB00932A463046154B04A9AFF30080C6
:1014D0000746781CD6D16B6ED90705D4AB899A051F
:1014E00002D4A86DFFF7BDFDAB895B063FF512AFD7
:1014F000099811E703AB00932A463046084B04A92C
:1015000000F082F8E4E700BF302200085022000813
:1015100010220008702200087A2200080000000053
:10152000A3120008762200082DE9F04716469946D6
:101530008A680B6907469342B8BF1346336091F837
:1015400043200C46DDF820800AB101333360236864
:10155000990642BF336802333360256815F00605EB
:1015600006D104F1190AE36832689B1AAB4228DC01
:1015700094F84320131E226818BF012392062DD42D
:101580004946384604F14302C047013020D0236861
:10159000E56803F00603042B18BF002532684FF0FE
:1015A0000006A36808BFAD1A226908BF25EAE575E1
:1015B0009342C4BF9B1AED181A34B5421AD10020C9
:1015C00008E00123524649463846C047013003D15E
:1015D0004FF0FF30BDE8F0870135C4E73020E11857
:1015E00081F843005A1C94F845102244023382F8D3
:1015F0004310C5E70123224649463846C04701301B
:10160000E6D00136D9E700002DE9FF470C46277EDA
:101610009146782F80469A460C9904F1430207D8E8
:10162000622F0AD8002F00F0D980582F00F0A48034
:1016300004F1420684F842703AE0A7F16303152BE7
:10164000F6D801A050F823F0A1160008B51600083E
:10165000311600083116000831160008311600084E
:10166000B5160008311600083116000831160008BA
:1016700031160008C3170008E5160008A517000872
:101680003116000831160008E51700083116000869
:10169000E51600083116000831160008AD170008DD
:1016A0000B6804F142061A1D1B680A6084F8423078
:1016B0000123A4E0256808682E0600F104030AD57A
:1016C00005680B60002D03DA2D236D4284F843304A
:1016D0000A235E4819E015F0400F05680B6018BF3B
:1016E0002DB2EFE70B682568181D0860280601D5A4
:1016F0001D6802E06906FBD51D886F2F0CBF08230B
:101700000A235248002184F843106668002EA8BFBF
:101710002168A660A4BF21F0040121600DB9002E4C
:101720004DD01646B5FBF3F103FB1157C75D06F824
:10173000017D2F46BB420D46F4D9082B0BD12368FF
:10174000DF0708D5236961689942DEBF302306F8B8
:10175000013C06F1FF36921B22614B462146404672
:10176000CDF800A003AAFFF7DFFE01304CD14FF007
:10177000FF3004B0BDE8F087344884F845700E6847
:10178000236856F8045B1F060E6014D5D90744BFC2
:1017900043F0200323601DB9236823F02003236056
:1017A0001023AFE7236843F0200323607823284801
:1017B00084F84530E3E75E0648BFADB2E6E716467B
:1017C000BBE70B6826681D1D60690D6035061B6848
:1017D00001D5186002E07106FBD51880002316467B
:1017E0002361BAE70B681A1D0A601E6800213046A3
:1017F000626800F0D9F808B1801B606063682361FB
:10180000002384F84330A8E732464946404623691E
:10181000D0470130ABD023689B0713D4E068039B0B
:101820009842B8BF1846A4E70123324649464046CD
:10183000D04701309BD00135E36803995B1AAB4276
:10184000F2DCEBE7002504F11906F5E78122000838
:101850009222000838B50023054D044608462B6047
:1018600000F0F6F8431C02D12B6803B1236038BDA9
:101870001401002010B50C46B1F90E1000F0AEF8BE
:101880000028ABBF636DA3891B1823F48053ACBF42
:101890006365A38110BD2DE9F0411F468B89054684
:1018A000DB050C46164605D502230022B1F90E10C1
:1018B00000F068F8A389324623F48053A3812846B8
:1018C0003B46B4F90E10BDE8F04100F017B810B572
:1018D0000C46B1F90E1000F055F8431CA38915BF52
:1018E000606523F4805343F48053A38118BFA38120
:1018F00010BDB1F90E1000F013B8000038B5044661
:10190000084611460022054D2A601A46FEF798FB4C
:10191000431C02D12B6803B1236038BD14010020A1
:1019200038B50023054D044608462B6000F068F8E2
:10193000431C02D12B6803B1236038BD1401002081
:1019400038B50023064D0446084611462B6000F0CA
:101950005FF8431C02D12B6803B1236038BD00BF80
:101960001401002038B50023054D044608462B60BD
:1019700000F056F8431C02D12B6803B1236038BD38
:101980001401002038B50446084611460022054DD2
:101990002A601A4600F04CF8431C02D12B6803B1B0
:1019A000236038BD14010020034610B5C9B20244BB
:1019B0009342184601D1002003E0047801338C42A1
:1019C000F6D110BD0148FFF74BBB00BF0C01002052
:1019D0000148FFF746BB00BF0C01002038B50446A4
:1019E000084611460022054D2A601A4600F028F8E4
:1019F000431C02D12B6803B1236038BD14010020C1
:101A00005822024B4FF0FF301A607047140100203B
:101A10005822024B4FF0FF301A607047140100202B
:101A20005822024B00201A60704700BF14010020AA
:101A30005822024B4FF0FF301A607047140100200B
:101A40005822024B4FF0FF301A60704714010020FB
:101A5000044B0246196809B9034919601868024421
:101A60001A607047E400002018010020F8B500BF9C
:101A7000F8BC08BC9E467047F8B500BFF8BC08BC6F
:041A80009E467047C7
:101A84000D0A3D3D3D3D3D3D3D3D3D3D3D3D3D3DE5
:101A94003D3D3D3D3D3D3D3D3D3D3D3D3D3D3D3D72
:101AA4003D3D3D3D3D3D3D3D3D3D3D3D3D3D3D3D62
:101AB4003D3D3D3D3D0D000020202048434D555403
:101AC400202D20434F3330353320454D4245444487
:101AD40045442053595354454D532041535349478A
:101AE4004E4D454E542032202020200D0000000091
:101AF40020202057415348494E47204D41434849EF
:101B04004E4520434F4E54524F4C20554E4954207D
:101B14002853544D33324631303343382920202062
:101B2400202020200D0000003D3D3D3D3D3D3D3D3C
:101B34003D3D3D3D3D3D3D3D3D3D3D3D3D3D3D3DD1
:101B44003D3D3D3D3D3D3D3D3D3D3D3D3D3D3D3DC1
:101B54003D3D3D3D3D3D3D3D3D3D3D0D00000000D5
:101B640050696E6F75742047756964653A0D00009D
:101B740020205B5041305D2053544F5020427574F7
:101B8400746F6E202020207C205B5041335D202B1D
:101B940031306320436F696E2020207C205B5042EB
:101BA400305D20524C45440D0000000020205B5065
:101BB40041315D2052554E20427574746F6E202061
:101BC4002020207C205B5041345D202B3230632068
:101BD400436F696E2020207C205B5042315D20429F
:101BE4004C45440D0000000020205B5041325D2034
:101BF400504155534520427574746F6E2020207CEB
:101C0400205B5041355D202B35306320436F696E76
:101C14002020207C205B5042385D204D4F544F5291
:101C24000D00000020205B5041365D204552524F8C
:101C34005220546573742042544E207C202020206E
:101C44002020202020202020202020202020207C34
:101C5400205B5042395D2042555A5A45520D0000CE
:101C64002D2D2D2D2D2D2D2D2D2D2D2D2D2D2D2DA0
:101C74002D2D2D2D2D2D2D2D2D2D2D2D2D2D2D2D90
:101C84002D2D2D2D2D2D2D2D2D2D2D2D2D2D2D2D80
:101C94002D2D2D0D00000000554E4B4E4F574E007C
:101CA4005B5354415445205452414E534954494F77
:101CB4004E5D202573202D3E2025730D0A00000063
:101CC4005B434F494E20494E5345525445445D2091
:101CD4002B25642063656E74732E20546F74616CBD
:101CE4003A2025642063656E74730D0A00000000B9
:101CF4005B494E464F5D20456E6F756768206D6F7A
:101D04006E65792120526561647920746F2065784D
:101D140065637574652E2050726573732052554E39
:101D240020746F2073746172742E0D005B434F49ED
:101D34004E20494E5345525445445D202B25642082
:101D440063656E74732E20546F74616C3A2025643D
:101D54002063656E747320284E6F20726566756EFD
:101D64006473290D0A0000005B414354494F4E5DE2
:101D74002052554E2070726573736564212053742C
:101D8400617274696E672077617368206379636C2C
:101D94006520282564207365636F6E6473292E2083
:101DA4004D6F6E657920636C65617265643A2025B8
:101DB400642063656E74732E0D0A00005B41435406
:101DC400494F4E5D2053544F5020707265737365B4
:101DD4006420696E2052454144592E205265736532
:101DE4007474696E6720746F205354414E44425991
:101DF4002E0D00005B414354494F4E5D2050415528
:101E0400534520707265737365642120576173684C
:101E1400696E67207061757365642E2054696D6501
:101E240072206973205354494C4C20636F756E744F
:101E3400696E6720646F776E2E0D00005B57415208
:101E44004E494E475D2053544F5020707265737352
:101E54006564203173742074696D65212050726546
:101E640073732053544F5020616761696E20776902
:101E74007468696E202564206D7320746F20466F2A
:101E84007263652053746F702E0D0A005B574153C3
:101E940048494E475D2054696D652072656D6169DE
:101EA4006E696E673A20253032643A253032640D0B
:101EB4000A0000000D0A5B434F4D504C4554454405
:101EC4005D2057617368696E67206379636C652070
:101ED400636F6D706C65746564212042757A7A65F0
:101EE40072206F6E2E205465726D696E6174696E16
:101EF400672E0D005B414354494F4E5D2052554EB1
:101F04002070726573736564212052652D65786550
:101F1400637574696E672077617368206379636C95
:101F2400652E0D005B5741524E494E475D20535478
:101F34004F5020707265737365642031737420741C
:101F4400696D6520696E20504155534521205072BA
:101F54006573732053544F5020616761696E207715
:101F6400697468696E202564206D7320746F20463F
:101F74006F7263652053746F702E0D0A00000000A9
:101F84005B5041555345445D2054696D652072652D
:101F94006D61696E696E673A20253032643A253086
:101FA4003264202854696D6572207374696C6C20E6
:101FB40072756E6E696E6721290D0A000D0A5B54F5
:101FC400494D454F55545D2054696D6572207265C5
:101FD40061636865642030207768696C6520696E88
:101FE4002050415553454421205465726D696E61FA
:101FF40074696E672E0D00000D0A5B464F5243450F
:102004002053544F505D2053544F502070726573C9
:1020140073656420326E642074696D652120466F97
:102024007263696E67206D616368696E6520746FA1
:10203400207465726D696E617465210D0000000085
:102044005B414354494F4E5D204572726F72206369
:102054006C6561726564202F20526573657420700D
:102064007265737365642E2052657475726E696E41
:102074006720746F205354414E4442592E0D000082
:102084000D0A3D3D3D3D3D3D3D3D3D3D3D3D3D3DDF
:102094003D3D3D3D3D3D3D3D3D3D3D3D3D3D3D3D6C
:1020A4003D3D3D3D3D3D3D3D3D3D3D3D0D00000043
:1020B4005B46534D20494E49545D2057617368690E
:1020C4006E67204D616368696E652052656164794D
:1020D40020696E205354414E4442592E0D00000095
:1020E400506C6561736520696E73657274206174E8
:1020F400206C656173742035302063656E747320C1
:10210400283130632C203230632C20353063292E63
:102114000D0000003D3D3D3D3D3D3D3D3D3D3D3DD2
:102124003D3D3D3D3D3D3D3D3D3D3D3D3D3D3D3DDB
:102134003D3D3D3D3D3D3D3D3D3D3D3D3D3D0D0038
:102144000D0A5B414C4552545D204572726F7220FA
:102154006465746563746564212053797374656D73
:1021640020656E746572696E67204552524F522025
:1021740073746174652E0D005B54494D454F55547D
:102184005D204E6F20326E642053544F5020707285
:1021940065737365642E20526573756D696E67206F
:1021A40025732E0D0A0000005354414E4442590039
:1021B400524541445900000052554E4E494E470085
:1021C400504155534544000053544F505F434F4EC4
:1021D4004649524D20285761697420326E64205359
:1021E400544F5029000000004552524F5200000045
:1021F400AC210008B4210008BC210008C421000857
:10220400CC210008EC210008580000200000000048
:1022140000000000000000000000000000000000BA
:1022240000000000000000000000000000000000AA
:10223400000000000000000000000000000000009A
:10224400000000000000000000000000000000008A
:10225400000000000000000000000000000000007A
:10226400000000000000000000000000232D302BBF
:102274002000686C4C006566674546470030313283
:1022840033343536373839414243444546003031DA
:102294003233343536373839616263646566000039
:1022A4000008014001000000000000000008014097
:1022B40002000000000000000008014004000000CB
:1022C40000000000000801400800000000000000B9
:1022D4000008014010000000000000000008014058
:1022E4002000000000000000000801404000000041
:1022F4000000000058000020000000003022000808
:102304005022000810220008000000000000000015
:1023140000000000000000000000000000000000B9
:1023240000000000000000000000000000000000A9
:102334000000000000000000000000000000000099
:102344000000000000000000000000000000000089
:08235400000000000000000081
:04000005080009E105
:00000001FF
